:020000040800F2
:100000009806002049260008690100086B010008D5
:1000100000000000000000000000000000000000E0
:100020000000000000000000000000006F01000858
:1000300000000000000000007101000873010008CA
:100040005B2600085B2600085B2600085B2600088C
:100050005B2600087B0100085B2600085B26000881
:100060005B2600085B2600085B2600085B2600086C
:100070005B2600089F0100085B2600085B2600083D
:100080005B2600085B260008000000005B260008D5
:100090005B2600085B2600085B2600085B2600083C
:1000A0005B2600085B2600085B2600085B2600082C
:1000B0005B260008000000005B260008000000002E
:1000C00000F002F800F040F80CA030C808382418FE
:1000D0002D18A246671EAB4654465D46AC4201D180
:1000E00000F032F87E460F3E0FCCB6460126334272
:1000F00000D0FB1AA246AB463343184764270000E2
:1001000084270000103A02D378C878C1FAD8520781
:1001100001D330C830C101D504680C6070470000BD
:100120000023002400250026103A01D378C1FBD813
:10013000520700D330C100D50B6070471FB5C046D1
:10014000C0461FBD10B510BD02F04AFB1146FFF7B7
:10015000F5FF00F09BF902F062FB03B4FFF7F2FF3A
:1001600003BC02F067FB0000704700BFFEE770476A
:10017000704710B500F0A6F910BD10B5002401209D
:1001800000F0B4FC002809D0002000F004F9044677
:10019000204600F07FFA012000F0BAFC10BD10B537
:1001A00000F004FC002809D100F010FC002805D163
:1001B00000F01CFC002801D100F0F1FB01210248F5
:1001C00002F0C6F810BD0000002C01401FB501214F
:1001D000C80200F0AAFFA749684681800021C180BB
:1001E000A548029068468181817301A9A34801F066
:1001F0000BFC0121A14802F0ABF8012211469F48F7
:1002000002F07AF80D216846017000214170012149
:10021000817000F0FBFF1FBD00B58DB0002000F025
:100220007EFE0121480500F08EFF0121880400F0C8
:100230006EFF0121480400F06AFF0121084600F02A
:1002400074FF01200990002108A80172C17209A958
:100250000920C00601F0BCFA0021084600F09EFC0F
:1002600001200B90002108A801740C214174012188
:1002700081740BA800F0DCFB052108A801700021A7
:1002800041700121817000F0C1FF09A801F0E8FA76
:10029000FF2001300990012108A80172002181721C
:1002A000C1720321417209A9754801F091FAFF203A
:1002B00001307349886101220621714801F011FB68
:1002C000012207216E4801F00CFB09A801F0C8FAD1
:1002D000022108A80172C0200990012108A8C1725A
:1002E00081720321417209A9654801F071FA01A8E0
:1002F00001F030F8002006900790029003900490DF
:1003000005906048019001A95F4800F0F2FF0121CB
:100310005D4801F02BF8FFF759FF0DB000BD38B56F
:1003200004460D4601204003C30201222B21009008
:10033000554801F033F900BF534880690221084055
:100340000028F9D02146504801F0CFF900BF4E48AF
:100350008069802108400028F9D001214A4801F035
:1003600097F800BF48488069022108400028F9D06A
:100370002946454801F0B9F90021434801F096F8B3
:1003800000BF41488069202108400028F9D0202082
:100390003D49C86138BD38B50446FF2501204003FA
:1003A000002301222B210090374801F0F7F800BF0D
:1003B00035488069022108400028F9D0214632489A
:1003C00001F093F900BF30488069402108400028BF
:1003D000F9D009208002CB0401222B2100902A4869
:1003E00001F0DCF800BF284880690421084000289B
:1003F000F9D0254801F07BF9054600BF2248806905
:10040000202108400028F9D020201F49C861284633
:1004100038BD10B50320FFF7BEFF0446602004433B
:1004200021460320FFF77BFF0F210620FFF777FF10
:1004300043210720FFF773FF77210820FFF76FFFA5
:1004400001210920FFF76BFF30210A20FFF767FF2A
:100450000F210B20FFF763FF04210C20FFF75FFF44
:1004600040210D20FFF75BFF00210E20FFF757FF13
:1004700010BD000080BB000010270000002C0140D0
:1004800000040048130F421000540040002002F006
:100490003BF8012002F038F80021084602F06CF821
:1004A000FFF7BAFE00F0EEF801E000F030F9FCE7EB
:1004B00001B509490098086000BF07480068002896
:1004C000FBD108BD04480068002804D00248006839
:1004D000401E014908607047000000200CB5002054
:1004E0000190009011205F4908605F4840685E49B4
:1004F0004860084640684860084640683F21090453
:10050000884359494860084640680521C9040843A2
:1005100055494860084600680121090608435249C8
:10052000086000BF504800680121490608400028C3
:10053000F8D04D484068800880004B494860084624
:100540004068022108434849486000BF4648406867
:100550000C2108400828F9D10CBD10B542480068AC
:100560000121084340490860084640683F49084067
:100570003D494860084600683D4908403A490860DE
:100580000846006801218904884337490860084605
:1005900040683F2109048843334948600846C06ADF
:1005A00000090001C8620846006BFF2154318843EE
:1005B0002D4908630846406B40084000486300200E
:1005C0008860FFF78BFF10BDF8B5002500240026DA
:1005D0000027254840680C2108400546002D04D01E
:1005E000042D06D0082D2AD107E0224822490860B0
:1005F00029E020482049086025E01B4840680F2179
:10060000890408400446184840680121090408404C
:100610000646A00C841C002E04D1184860431649DD
:1006200008600BE01048C06A0007000F471C3946FD
:10063000104802F025F860430F49086003E00D48B8
:100640000D49086000BF00BF07484068F02108401E
:1006500000090B490D5C08480068E840064908603D
:10066000F8BD000000200240001002400CB8FFF866
:10067000FFFFF6FE00127A000400002000093D0092
:10068000080000200020E1490880E1490870E149A4
:10069000087070470146DD4800880122D2031040EF
:1006A00090420FD0D94800881043D84A1080104695
:1006B000008808431080104600884004400C1080D9
:1006C000002070470020C043FBE70146CF48008868
:1006D0000122D203104090420FD0CC480088104332
:1006E000CA4A10801046008888431080104600884F
:1006F0004004400C1080002070470020C043FBE7FE
:10070000C448007801210843C2490870704710B5F9
:10071000BE4800880121C903084088427ED0BB48FA
:10072000008880210840802813D1B8480088090239
:100730000843B6490880FFF76CFEB4480088802162
:100740008843B2490880084600884004400C08806D
:1007500020E1AE48008840210840402867D10024AD
:10076000AA48008849020843A84908800120FFF7E9
:1007700012FE0446A748007800281BD180202040A4
:10078000802817D1A248007880210843A04908702A
:1007900008460078402188439D490870002001F0F8
:1007A000CEFE012001F0CBFE01219B4801F0B1F902
:1007B000FFF7A6FF4020204040280BD19448007846
:1007C0002021084392490870084600781021884388
:1007D0008F4908702020204020280BD18C480078B9
:1007E000082108438A490870084600780421884394
:1007F000874908701020204010280AD184480078CA
:1008000002210843824908700846007840084000E9
:1008100008707E4800884021884300E0BCE07B49A6
:100820000880084600884004400C0880B2E0774801
:10083000008820210840202865D17448008889025A
:100840000843724908807248007880210840802857
:100850000BD16F480078402108436D490870084665
:100860000078C02188436A490870694800782021CF
:100870000840202811D166480078102108436449B7
:100880000870002001F063FE012001F060FE604866
:100890000078302188435E4908705D48007808215F
:1008A000084008280ED15A480078042108435849C6
:1008B0000870002001F053FE554800780C21884351
:1008C00053490870524800780221084002280ED18E
:1008D0004F480078012108434D490870012001F07C
:1008E0003EFE4B4800788008800049490870474820
:1008F0000088202188434549088008460088400434
:10090000400C088046E0414800881021084010282B
:1009100011D13E480088C90208433C490880084676
:10092000008810218843394908800846008840041F
:10093000400C08802EE0354800880821084008282F
:1009400011D132480088090308433049088008461D
:100950000088082188432D49088008460088400403
:10096000400C088016E029480078C007C00F002816
:1009700010D0264800880121C90308432349088074
:100980000846008840084000088008460088400467
:10099000400C0880002010BD0020C043FBE71D482C
:1009A0000078400840001B490870704718480078DC
:1009B00030210840302805D0154800782021084013
:1009C000202801D1012070470020FCE71048007862
:1009D0000C2108400C2805D00D480078082108405B
:1009E000082801D1012070470020FCE70848007862
:1009F0008007800F0C2805D00548007802210840A8
:100A0000022801D1012070470020FCE718000020D7
:100A10001A0000201B000020002C01403E483F49E6
:100A20000860002048608860C8603D4848617047A1
:100A300000213A498279002A35D00A4612680368B3
:100A40009A430B461A600A46526803689A430B465B
:100A50005A60027951180A6803681A430A602F4ADB
:100A6000926803689A432D4B9A601A46D2680368CD
:100A70009A432A4BDA604279102A0CD11A469268BE
:100A800003681A43254B9A601A46D26803681A43D2
:100A9000224BDA600DE02149427951180A68036857
:100AA0001A430A6005E0027951180A6803689A43FC
:100AB0000A6070470021016001710C214171002121
:100AC00081717047154909690143144A11617047E2
:100AD00001460020114A52690A40002A01D0012033
:100AE00000E0002070470D49486170470146002032
:100AF00000220A4B1B680B401A46084B5B690B40EF
:100B0000002B03D0002A01D0012000E00020704714
:100B100002494861704700000000940F0004014042
:100B2000FFFF6B003A4800688007800F3849086073
:100B30000020886000213648C16001614161806900
:100B4000FF21013108433249886170470146002086
:100B50002F4A10688008800002460A4310462C4A3B
:100B600010607047002905D0294A12680243284BBB
:100B70001A6004E0264A12688243254B1A607047C7
:100B8000002905D0224A12680243214B1A6004E072
:100B90001F4A126882431E4B1A60704730B500220C
:100BA0008B071C0F0F23A3401A46194B08338C10D8
:100BB000A4001B599343164C08348D10AD006351AB
:100BC00023468C10A4001B598C07250F0446AC400B
:100BD00023430F4C08348D10AD00635130BD0C49D8
:100BE000896901430A4A9161704701460020084A19
:100BF0009269FF2301331A40002A01D0012000E04E
:100C000000207047024989690143014A9161704798
:100C100000000140FD48006801210843FB490860CD
:100C200008464068FA490840F849486008460068A4
:100C3000F8490840F5490860084600680121890420
:100C40008843F2490860084640683F210904884308
:100C5000EE4948600846C06A00090001C8620846BB
:100C6000006BFF2154318843E84908630846406B14
:100C70004008400048630020886070470021E34A34
:100C8000917011468870704710B50246002100230C
:100C900000205111002902D1DC4C23680BE001290E
:100CA00002D1DA4C236A06E0022902D1D74C636AEA
:100CB00001E0D64C636BD106C90E01248C401C4068
:100CC000002C01D0012000E0002010BD38B500202C
:100CD00000900024002500BF1120FFF7D5FF054636
:100CE0000098401C0090052109020098884201D01C
:100CF000002DF1D01120FFF7C7FF002801D00124FB
:100D000000E00024204638BD01460020BF4A10689C
:100D1000F82302469A431046CA001043BB4A1060AB
:100D20007047002806D0B949096801221143B74A23
:100D3000116005E0B549096849084900B34A1160E6
:100D4000704701460020B14A506BF82302469A438F
:100D50001046CA001043AD4A50637047002806D0C1
:100D6000AA49496B01221143A84A516305E0A749EA
:100D7000496B49084900A54A51637047002806D0CD
:100D8000A249496B04229143A04A516305E09F495F
:100D9000496B042211439D4A516370479B49096A7C
:100DA00049084900994A11621146096A042291438F
:100DB000964A11621146096A0143116270479349CC
:100DC000096A18229143914A11621146096A014346
:100DD00011627047002806D08C49496A01221143EC
:100DE0008A4A516205E08949496A49084900874AA7
:100DF00051627047854A52683D231B049A43834BD6
:100E00005A601A46526803460B431A437F4B5A6096
:100E10007047002807D07D49096801221206114356
:100E20007A4A116006E07949096801221206914365
:100E3000764A1160704701460020744AD06A000962
:100E4000000102460A431046704AD06270470028EB
:100E500007D06E4909680122D20411436B4A116020
:100E600006E06A4909680122D2049143674A116089
:100E700070476649C871704701460020634A506850
:100E80008008800002460A431046604A506070475E
:100E90005E4840680C2108407047014600205B4ACC
:100EA0005068F02302469A43104602460A43104611
:100EB000564A5060704701460020544A5068072344
:100EC0001B0202469A43104602460A4310464F4A06
:100ED000506070474D4949680122920391434B4A43
:100EE00051601146496882B21143484A5160114627
:100EF000096B92159143454A11631146096B020C27
:100F00001143424A116370474049096B40229143A3
:100F10003E4A11631146096B0143116370473B4917
:100F2000096B10229143394A11631146096B014341
:100F3000116370473549096B89088900334A116389
:100F40001146096B014311637047FEB50446002545
:100F5000002600200190009000272C4840680C21BA
:100F600008400546002D04D0042D05D0082D28D1B9
:100F700005E02948206027E02748206024E0234836
:100F800040680F2189040840064620484068012136
:100F9000090408400190B00C861C0198002803D178
:100FA0001E48704320600BE01848C06A0007000F1D
:100FB000401C00901848009901F062FB70432060CB
:100FC00002E01548206000BF00BF10484068F021D3
:100FD000084005462D091248475D2068F8406060CA
:100FE0000A48406807210902084005462D0A0C48B6
:100FF000475D6068F840A0600448006BFF21013144
:101000000840884210D00748E0601BE00010024012
:101010000CB8FFF8FFFFF6FE00127A0000093D0051
:101020001C000020809FD50075484068012189037D
:101030000840884203D0A0684008E06002E0A06851
:101040008008E0606E48006B40210840402802D0D4
:101050006C48206102E00120C00320616848006BF9
:1010600010210840102802D06748606101E0206824
:1010700060616348006B8007800F002802D1A06880
:10108000A06119E05E48006B8007800F012802D143
:101090002068A06110E05A48006B8007800F02288A
:1010A00002D18003A06107E05548006B8007800FE4
:1010B000032801D15448A061FEBD5149096A01438A
:1010C0004F4A11627047002807D04D49096A012232
:1010D000D20311434A4A116206E04949096A0122D2
:1010E000D2039143464A11627047002807D0444911
:1010F000096A012212041143414A116206E0404983
:10110000096A0122120491433D4A11627047002985
:1011100005D03B4A52690243394B5A6104E0384AD0
:1011200052698243364B5A617047002905D0344AD0
:1011300092690243324B9A6104E0314A92698243D8
:101140002F4B9A617047002905D02D4AD26902437E
:101150002B4BDA6104E02A4AD2698243284BDA61D8
:101160007047002905D0264A926A0243244B9A62AE
:1011700004E0234A926A8243214B9A627047002915
:1011800005D01F4AD26802431D4BDA6004E01C4AB6
:10119000D26882431A4BDA607047002905D0184A9A
:1011A00012690243164B1A6104E0154A1269824320
:1011B000134B1A617047002905D0114A527A024335
:1011C0000F4B5A7204E00E4A527A82430C4B5A7209
:1011D00070470B48406A01210906084308494862E4
:1011E000704701460020064A92680A40002A01D052
:1011F000012000E00020704701498872704700001C
:10120000001002401280000000127A000021827853
:10121000002A27D0274A03231B02D21803789B10E9
:101220009B00D15802789207D30EFF229A400B46BA
:101230009343194642789207120E03789B07DB0E00
:101240009A4011431B4A03231B02D21803789B10B8
:101250009B00D1500278D306DB0E01229A40154B39
:101260001A6007E00278D306DB0E01229A40114B88
:1012700080331A607047002905D00F4A1269024373
:101280000D4B1A6104E00C4A126982430A4B1A6141
:101290007047042806D10949096904221143074A05
:1012A000116105E00549096904229143034A11616E
:1012B0007047000000E100E000ED00E000E000E029
:1012C00010B50446F848844209D101214805FFF7CA
:1012D00064FF002101204005FFF75FFF08E00121C6
:1012E0008805FFF75AFF002101208005FFF755FF11
:1012F00010BD10B50A46002103685B085B0003605F
:101300000168EA4B19409468240253682343194347
:1013100001600F2424061368A343036103680124BA
:101320002343036000218160C160146993692343F2
:101330001946816083680124E40323438360D168F4
:1013400003680B4303604168D94B19405369194343
:10135000416010BD0021016041608160C160016198
:101360000121C9034161002181617047002904D036
:10137000026801231A43026003E002685208520027
:1013800002607047002905D0026801235B031A43FD
:10139000026004E0026801235B039A430260704725
:1013A000002A03D003680B43036002E003688B4309
:1013B00003607047002905D0026801235B049A434B
:1013C000026004E0026801235B041A430260704774
:1013D000002905D0026801239B041A43026004E03F
:1013E000026801239B049A4302607047002905D0DC
:1013F000C2680123DB031A43C26004E0C268012310
:10140000DB039A43C260704770B50B460021C16888
:10141000A84C2140FE241C40150207263602354008
:101420002C432143C16070BD002905D0026801230F
:10143000DB041A43026004E002680123DB049A43E0
:1014400002607047002905D0026801231B041A437B
:10145000026004E0026801231B049A4302607047A3
:101460000A4600214168890A890293059B0D1943A8
:1014700041607047002905D042680123DB021A430E
:10148000426004E042680123DB029A4342607047F5
:10149000002905D0426801235B061A43426004E03C
:1014A000426801235B069A4342607047002905D0D9
:1014B000426801231B061A43426004E0426801238C
:1014C0001B069A434260704710B50A4600214168E6
:1014D000FF2424040B46A343194613042340194355
:1014E000416010BD002905D1426801239B029A4347
:1014F000426004E0426801239B021A434260704745
:10150000002905D0426801235B031A43426004E0CE
:10151000426801235B039A4342607047002905D06B
:10152000426801239B031A43426004E0426801239E
:101530009B039A4342607047002905D0426801230B
:101540001B031A43426004E0426801231B039A43D1
:1015500042607047002905D042680123DB039A43AB
:10156000426004E042680123DB031A434260704793
:10157000014688697F2252041040000C704710B564
:101580000146002200208B690124240423401A46CE
:10159000002A00D101E00120800210BDF0B5044610
:1015A00000206068444D284000280CD000BF8D0505
:1015B000AD0D1604FF273F043E4035431D43059EF5
:1015C000354328430AE08D056D0D1604FF273F04BF
:1015D0003E4035431D43059E354328436060F0BDC2
:1015E000002905D0026801239B051A43026004E02C
:1015F000026801239B059A4302607047002905D0C9
:1016000042690123DB031A43426104E0426901237A
:10161000DB039A4342617047002905D042690123E8
:10162000DB071A43426103E04269520052084261FB
:101630007047002905D0426901231B031A43426108
:1016400004E0426901231B039A43426170470A4642
:1016500000214169090B090313051B0D1943416161
:10166000704710B50A4600214169144B1940130414
:10167000124CE44323401943416110BD002905D0B9
:1016800002680123DB051A43026004E002680123BB
:10169000DB059A4302607047002911D002680123DC
:1016A0009B061A43026010E000540040FFE0CF00A8
:1016B000FF7FFF0701F8FFFF009800FCFFFF00F02D
:1016C000026801239B069A43026070470146086A3C
:1016D000C0B2704708B50246002000900092009802
:1016E000401800900098006808BD8162704701466C
:1016F000486AC0B27047002A03D003680B430360F6
:1017000002E003688B430360704710B50246002374
:10171000002093691C460C402346002B01D0012079
:1017200000E0002010BDC161704710B502460023E3
:10173000002093691C460C402346002B01D0012059
:1017400000E0002010BDC1617047000010B50446E4
:101750000920C006844209D101214804FFF701FD98
:10176000002101204004FFF7FCFC30E06E48844279
:1017700008D101210002FFF7F4FC00212002FFF74D
:10178000F0FC24E06948844208D101210002FFF7FF
:10179000E8FC00212002FFF7E4FC18E064488442E2
:1017A00009D101210805FFF7DCFC0021012000051B
:1017B000FFF7D7FC0BE05F48844208D10121880580
:1017C000FFF7CFFC002101208005FFF7CAFC10BD08
:1017D000F0B50A4600210023002400BF3DE00125AA
:1017E0008D402B4615681D402C469C4234D11579FE
:1017F000012D02D01579022D16D185684F000326E0
:10180000BE40B543856055794E00B5408668354386
:101810008560858801268E40B543858085889679C8
:101820008E40B6B23543858005684F000326BE4022
:10183000B543056015794E00B5400668354305602F
:10184000C5684F000326BE40B543C560D5794E003C
:10185000B540C6683543C560491C1029BFD3F0BDEB
:10186000354901600021017102214171002181711E
:10187000C171704708B5012212040092009A0A4310
:101880000092009AC261C161009AC261C26900926D
:10189000C269009208BD02460020138A0B40002B4B
:1018A00001D0012000E0002070470146088A7047FF
:1018B00002460020938A0B40002B01D0012000E05B
:1018C000002070470146888A704781617047018512
:1018D0007047002A01D0816100E001857047818254
:1018E0007047F0B5002300244D07EE0E1546B540B5
:1018F0002B46CD10AE0005462035AD594E07F70EEC
:101900000F26BE40B543CE10B60007462037BD5166
:10191000CD10AE003D46AD591D432C46CD10AD0057
:101920003E467451F0BD0000000400480008004825
:10193000000C004800140048FFFF000010B50446EA
:10194000FE48844208D10121C014FFF718FC002191
:10195000E014FFF714FC56E001208007844208D110
:1019600001210846FFF719FC00210120FFF715FCB3
:1019700049E0F348844208D101210220FFF70DFC21
:1019800000210220FFF709FC3DE0EE48844208D127
:1019900001211020FFF701FC00211020FFF7FDFBC3
:1019A00031E0E948844208D101218015FFF7F5FBB9
:1019B0000021A015FFF7F1FB25E0E448844209D19E
:1019C00001210804FFF7DBFB002101200004FFF7E1
:1019D000D6FB18E0DE48844209D101214804FFF714
:1019E000CEFB002101204004FFF7C9FB0BE0D948E2
:1019F000844208D101218804FFF7C1FB00210120A6
:101A00008004FFF7BCFB10BD00220288CB4B98423C
:101A100006D001239B07984202D0C94B984203D1BC
:101A2000CD4B1A404B881A43C64B984203D0CB4B40
:101A30001A400B891A4302804B68C3620B880385E6
:101A4000BE4B984208D0C14B984205D0C04B98423B
:101A500002D0C04B984201D18B7A03860123838246
:101A600070470021C943416000210180018141800C
:101A7000817270470185828270470A460021018881
:101A8000B54B19400B46134319460180704741621C
:101A90007047C16270470146486A70470146088D29
:101AA0007047002904D0028802231A43028004E010
:101AB0000288A94B6E331A4002807047002904D077
:101AC000028804231A43028004E00288A24B6C338C
:101AD0001A4002807047002904D0028880231A43EC
:101AE000028004E002889C4B103B1A400280704741
:101AF0000288994B68331A40028002880A430280A8
:101B000070470288954B1A40028002880A4302807F
:101B10007047002904D0028801231A43028004E0A0
:101B200002888D4B6F331A40028070470A884B88B9
:101B30001A438B881A43CB881A430B891A434B8963
:101B40001A438B891A4344231A527047002101809B
:101B500041808180C180018141818181704700295C
:101B600007D04422125A0123DB031A4344231A529A
:101B700005E04422125A53045B0C4422135270476E
:101B800070B5002400220023058C734E6F3635405B
:101B90000584028C8388048B6F4D2C40B51E2C402D
:101BA0000D882C43751E2A408D892A434D882A436F
:101BB000624DA84208D0654DA84205D0644DA842A8
:101BC00002D0644DA84212D1634D68352A40CD89B8
:101BD0002A43614D6C352A408D882A435E4D903DE5
:101BE0002B405F4D2B400D8A2B434D8A2B43838026
:101BF00004838D684563028470BD70B500240022A3
:101C00000023058C544E603635400584028C838851
:101C1000048B544D2C40514D2C400D782D062D0C2D
:101C20002C434D4D50352A408D892D052D0C2A43CE
:101C30004D882D052D0C2A43404DA84219D1464D03
:101C4000103D2A40CD892D052D0C2A43424D3035BB
:101C50002A408D882D052D0C2A43434D2B40434DA2
:101C60002B400D8AAD042D0C2B434D8AAD042D0C59
:101C70002B43838004838D688563028470BD70B5B7
:101C8000002400220023058C334E903E354005840D
:101C9000028C8388848B304D2C402F4D6D352C4029
:101CA0000D882C432E4D2A400D7B2D062D0C2A43EA
:101CB0008D782D062D0C2A43204DA84217D12B4D8F
:101CC0002A408D7B2D062D0C2A43274D2A400D7965
:101CD0002D062D0C2A43264D2B40264D2B400D8AD8
:101CE0002D052D0C2B434D8A2D052D0C2B43838068
:101CF00084838D68C563028470BD70B500220023A3
:101D00000024058C1A4E35400584038C8488828B10
:101D1000144D2A40114D2A400D782D062D0C2A43D2
:101D2000144D2B400D7B2D072D0C2B438D782D074B
:101D30002D0C2B43014DA84224D11DE0002C014065
:101D4000000400400010004000200040004001401E
:101D500000440140004801408FFF0000FFFC0000EC
:101D6000FFFD0000FF8F0000FFFB0000FFF70000F9
:101D7000FFEF0000FFDF0000FC4D2C400D8AAD0599
:101D80002D0C2C43848082838D680564038470BD90
:101D9000002101804180818081608181C181018237
:101DA0004182704770B50346002000241846183061
:101DB00001258D40ACB21D8CA5431D84002901D0A6
:101DC000082909D14D10281805687026B54305600B
:101DD0000568154305600DE00D1F2D046D0C2818D6
:101DE000056807263603B543056005681606360CF8
:101DF0003543056070BD4163704781637047C163BF
:101E00007047016470470A460021018BD84B194086
:101E10000B4613431946018370470A460021018B84
:101E2000D44B194013061B0C1943018370470A4613
:101E30000021818BCE4B19400B46134319468183F9
:101E400070470A460021818BCA4B194013061B0CB0
:101E5000194381837047002904D0828801231A43E3
:101E6000828004E08288C24B6F331A4082807047C0
:101E70000A460021018BBE4B683319400B461343C1
:101E80001946018370470A460021018BBA4B19405D
:101E900013061B0C1943018370470A460021818BEE
:101EA000B34B683319400B4613431946818370477F
:101EB0000A460021818BB04B194013061B0C1943B5
:101EC000818370470A460021018BA94B6C3319406E
:101ED0000B4613431946018370470A460021018BC4
:101EE000A64B194013061B0C1943018370470A4681
:101EF0000021818B9E4B6C3319400B4613431946CE
:101F0000818370470A460021818B9C4B1940130640
:101F10001B0C1943818370470A460021018B944BA7
:101F2000103B19400B4613431946018370470A467C
:101F30000021018B4904490C13061B0C1943018332
:101F400070470A460021818B894B103B19400B4694
:101F500013431946818370470A460021818B490447
:101F6000490C13061B0C1943818370470A46002154
:101F7000018C7F4B6E3319400B4613431946018485
:101F800070470A460021018C794B683319400B4693
:101F900013431946018470470A460021018C744B93
:101FA0005033194013051B0C1943018470470A462E
:101FB0000021018C6E4B103B194013051B0C19437B
:101FC000018470470A460021018C6D4B19401306AD
:101FD0001B0C1943018470470A460021018C664B93
:101FE000194013061B0C1943018470470A4600214F
:101FF000018C644B194013071B0C19430184704773
:1020000002895B4B68331A40028102890A430281CC
:10201000704730B5002301248C40A3B2048C9C434C
:102020000484048C15468D40ADB22C43048430BD2D
:1020300030B5002304248C40A3B2048C9C43048458
:10204000048C15468D40ADB22C43048430BD00296C
:1020500004D0828804231A43828004E08288444B9F
:102060006C331A4082807047828B474B1A408283C0
:10207000828B0B061B0C1A4382837047F8B50C4603
:102080000021002500260096068C404F3E40068425
:10209000818B058C2607360C00963D4E3140160686
:1020A000360C31431E07360C31433A4E354001277A
:1020B0003F03009E3E43354381830584F8BD828BF8
:1020C0002B4B64331A408283828B0A43828370478E
:1020D000F8B50C460021002500260096068C244FFA
:1020E000903F3E400684818B058C2606360C009678
:1020F0001F4E833E31401E05360C16433143264E9B
:102100003540FF270137009E3E43354381830584D8
:10211000F8BD028B1C4B1A400283028B0B061B0C72
:102120001A4302837047F8B50C46002100250026AB
:102130000096068C0E4F60373E400684018B058C5E
:102140002605360C0096124E31401E07360C3143E0
:102150001606360C3143064E303E35401027009EA1
:102160003E43354301830584F8BD0000FFBF0000F6
:102170008FFF0000FF8F0000FFF70000FFFB000053
:10218000FFFD0000FFDF0000FFF30000FFEF000095
:10219000FF0C0000FF5F0000FFF50000028BD84B32
:1021A0001A400283028B0A4302837047F0B50C4643
:1021B00000210025068CD24F0B373E400684018B50
:1021C000058CCF4EE73E31401E05360C1643314399
:1021D000CB4EB61C3540012626433543018305848A
:1021E000F0BD70B505460C46208800280AD1238929
:1021F000A28861882846FFF7D9FFE1882846FFF7C3
:10220000CDFF25E0208804280AD12389A28861888F
:102210002846FFF788FFE1882846FFF77AFF17E096
:10222000208808280AD12389A28861882846FFF7D8
:102230004FFFE1882846FFF742FF09E02389A28883
:1022400061882846FFF71AFFE1882846FFF70CFF50
:1022500070BD002101804180012181800021C18069
:1022600001817047F8B505460C46002601276088B5
:10227000002801D1022600E00026A088012801D113
:10228000022700E001272088002814D12389A28892
:1022900061882846FFF78AFFE1882846FFF77EFF1E
:1022A00023893A4631462846FFF73DFFE188284614
:1022B000FFF72FFF13E02389A28861882846FFF7E4
:1022C00032FFE1882846FFF724FF23893A4631464A
:1022D0002846FFF76BFFE1882846FFF75FFFF8BD50
:1022E0000146486B70470146886B70470146C86BD2
:1022F00070470146086C7047002A03D083890B435E
:10230000838102E083898B43838170478182704798
:1023100002460020138A0B40002B01D0012000E070
:1023200000207047CA430282704730B50246002041
:1023300000230024158A0D402B4695890D402C461C
:10234000002B03D0002C01D0012000E0002030BD84
:10235000CA430282704710B50B46134348242352E8
:1023600010BD002A03D083890B43838102E0838957
:102370008B4383817047002904D0828808231A4345
:10238000828004E082885E4B1B1D1A408280704769
:1023900001895B4A521D1140018170470A460021A4
:1023A0000189574B643B19400B4613431946018181
:1023B000704730B504460D4629462046FFF7EEFF2C
:1023C000208907210843208130BDF8B504460D4619
:1023D00016461F46602D06D13B4601223146204657
:1023E000FFF7A1FE05E03B46012231462046FFF7FC
:1023F000DDFE29462046FFF7D1FF2089072108434B
:102400002081F8BD30B50C4600210189C9B21D06F6
:102410002D0C154325432943018130BDFFB50546E9
:102420000E46174600243A4631462846039BFFF7DE
:10243000E9FF2C893248401D0440072004433048FE
:1024400064380440702004432C81FFBDF0B504467D
:102450000D4616461F463B46324629462046FFF7A4
:10246000D1FF20890121890308432081F0BD8288A2
:10247000234B643B1A40828082880A4382807047E3
:1024800002891F4B5B1D1A40028102890A430281A7
:10249000704702891A4B743B1A40028102890A4331
:1024A00002817047F0B50C46002100250026018905
:1024B000058B068C124F7F1D39400F462743394646
:1024C000104F3D40FF2702373D430D4F9E3F3E409A
:1024D0001F053F0C17433E43018105830684F0BD71
:1024E000002904D0828880231A43828004E08288F5
:1024F000034B743B1A408280704750221152704740
:10250000F3FF0000FCFC00001CB50446A100444A97
:1025100050580121FEF7FBFD60004249085A009027
:1025200001216846017100218171C171032141714E
:10253000A1003D4A50586946FFF74AF91CBD4100C9
:10254000384A515A8200384B9A589161704741007D
:10255000344A515A8200344B9A5811857047810091
:10256000314A5158898A42002E4B9A5A5140820072
:102570002D4B9A589182704730B585B004460D4670
:10258000A1002A4A50580121FEF7C1FD0121084649
:10259000FEF7CBFD002168460174C1746000244938
:1025A000085A0390A100234A505803A9FFF710F9D5
:1025B000012D27D16200204B995C62001F4B985C73
:1025C000FEF7ECFA60001E49085A019000206946A7
:1025D0000872002C02D00820487202E00C206946E4
:1025E000487201216846817201A8FEF721FA600055
:1025F0001449095C68460170032141700121817012
:10260000FEF704FE05B030BD10B504466200084B6D
:10261000995AA200074B9858FFF73DF910BD0000EA
:1026200048280008442800082C00002054280008EE
:1026300050280008340000205C2800085A280008B0
:10264000582800085E2800080748804707480047C8
:10265000FEE7FEE7FEE7FEE7FEE7FEE70448054982
:10266000054A064B704700005B050008C1000008E2
:102670009800002098060020980200209802002070
:10268000002203098B422CD3030A8B4211D300236F
:102690009C464EE003460B433CD4002243088B4249
:1026A00031D303098B421CD3030A8B4201D39446D6
:1026B0003FE0C3098B4201D3CB01C01A52418309C9
:1026C0008B4201D38B01C01A524143098B4201D383
:1026D0004B01C01A524103098B4201D30B01C01AAE
:1026E0005241C3088B4201D3CB00C01A5241830828
:1026F0008B4201D38B00C01A524143088B4201D355
:102700004B00C01A5241411A00D2014652411046B4
:1027100070475DE0CA0F00D04942031000D3404229
:10272000534000229C4603098B422DD3030A8B425F
:1027300012D3FC22890112BA030A8B420CD38901FD
:1027400092118B4208D3890192118B4204D38901E3
:102750003AD0921100E08909C3098B4201D3CB0121
:10276000C01A524183098B4201D38B01C01A5241D6
:1027700043098B4201D34B01C01A524103098B42DA
:1027800001D30B01C01A5241C3088B4201D3CB00C5
:10279000C01A524183088B4201D38B00C01A5241A8
:1027A000D9D243088B4201D34B00C01A5241411A7F
:1027B00000D20146634652415B10104601D34042AD
:1027C000002B00D54942704763465B1000D340425E
:1027D00001B50020C046C04602BD70477047704733
:1027E000754600F023F8AE46050069465346C0081A
:1027F000C000854618B020B5FFF730FF60BC002749
:102800004908B6460026C0C5C0C5C0C5C0C5C0C5BC
:10281000C0C5C0C5C0C5403D49008D46704704468F
:10282000C046C0462046FDF798FC000000487047AF
:102830003800002001491820ABBEFEE72600020048
:1028400070470000000200010000080000000800BE
:10285000010000000000020001000000000005006F
:102860008028000800000020380000000401000853
:10287000B828000838000020600600002001000889
:1028800000000000006CDC020000000000000000FE
:102890000102030406070809000000000000000010
:1028A00001020304010203040607080900080048A6
:0828B000000800480000004888
:04000005080000C12E
:00000001FF
